{
  "contractName": "Signing",
  "abi": [
    {
      "constant": true,
      "inputs": [],
      "name": "original",
      "outputs": [
        {
          "name": "",
          "type": "string"
        }
      ],
      "payable": false,
      "stateMutability": "view",
      "type": "function"
    },
    {
      "constant": true,
      "inputs": [],
      "name": "signed_1",
      "outputs": [
        {
          "name": "",
          "type": "string"
        }
      ],
      "payable": false,
      "stateMutability": "view",
      "type": "function"
    },
    {
      "constant": true,
      "inputs": [],
      "name": "signer_1",
      "outputs": [
        {
          "name": "",
          "type": "address"
        }
      ],
      "payable": false,
      "stateMutability": "view",
      "type": "function"
    },
    {
      "constant": true,
      "inputs": [],
      "name": "state",
      "outputs": [
        {
          "name": "",
          "type": "uint256"
        }
      ],
      "payable": false,
      "stateMutability": "view",
      "type": "function"
    },
    {
      "constant": true,
      "inputs": [],
      "name": "signed_2",
      "outputs": [
        {
          "name": "",
          "type": "string"
        }
      ],
      "payable": false,
      "stateMutability": "view",
      "type": "function"
    },
    {
      "constant": true,
      "inputs": [],
      "name": "signer_2",
      "outputs": [
        {
          "name": "",
          "type": "address"
        }
      ],
      "payable": false,
      "stateMutability": "view",
      "type": "function"
    },
    {
      "inputs": [],
      "payable": false,
      "stateMutability": "nonpayable",
      "type": "constructor"
    },
    {
      "constant": false,
      "inputs": [
        {
          "name": "name_1",
          "type": "string"
        },
        {
          "name": "name_2",
          "type": "string"
        },
        {
          "name": "doc",
          "type": "string"
        }
      ],
      "name": "real_constructor",
      "outputs": [],
      "payable": false,
      "stateMutability": "nonpayable",
      "type": "function"
    },
    {
      "constant": false,
      "inputs": [],
      "name": "sign",
      "outputs": [
        {
          "name": "",
          "type": "uint256"
        }
      ],
      "payable": false,
      "stateMutability": "nonpayable",
      "type": "function"
    },
    {
      "constant": true,
      "inputs": [],
      "name": "completion",
      "outputs": [
        {
          "name": "",
          "type": "bool"
        }
      ],
      "payable": false,
      "stateMutability": "view",
      "type": "function"
    },
    {
      "constant": true,
      "inputs": [
        {
          "name": "_a",
          "type": "string"
        },
        {
          "name": "_b",
          "type": "string"
        }
      ],
      "name": "concat",
      "outputs": [
        {
          "name": "",
          "type": "string"
        }
      ],
      "payable": false,
      "stateMutability": "view",
      "type": "function"
    }
  ],
  "bytecode": "0x60806040523480156200001157600080fd5b5060006005819055507352f0c2e6260ab3ee564ce4354985a9b8500e62fe600760405180807f546f6d00000000000000000000000000000000000000000000000000000000008152506003019050908152602001604051809103902060006101000a81548173ffffffffffffffffffffffffffffffffffffffff021916908373ffffffffffffffffffffffffffffffffffffffff16021790555073632e605a551e3ebaa095c1e16681e6e3bd54faf8600760405180807f4a657272790000000000000000000000000000000000000000000000000000008152506005019050908152602001604051809103902060006101000a81548173ffffffffffffffffffffffffffffffffffffffff021916908373ffffffffffffffffffffffffffffffffffffffff160217905550606060405190810160405280602881526020017f353266306332453632363061423365453536344345343335343938354139623881526020017f3530304536324665000000000000000000000000000000000000000000000000815250600660007352f0c2e6260ab3ee564ce4354985a9b8500e62fe73ffffffffffffffffffffffffffffffffffffffff1673ffffffffffffffffffffffffffffffffffffffff168152602001908152602001600020908051906020019062000201929190620002ce565b50606060405190810160405280602881526020017f363332453630354135353145334562614130393543316531363638316536653381526020017f42443534664166380000000000000000000000000000000000000000000000008152506006600073632e605a551e3ebaa095c1e16681e6e3bd54faf873ffffffffffffffffffffffffffffffffffffffff1673ffffffffffffffffffffffffffffffffffffffff1681526020019081526020016000209080519060200190620002c7929190620002ce565b506200037d565b828054600181600116156101000203166002900490600052602060002090601f016020900481019282601f106200031157805160ff191683800117855562000342565b8280016001018555821562000342579182015b828111156200034157825182559160200191906001019062000324565b5b50905062000351919062000355565b5090565b6200037a91905b80821115620003765760008160009055506001016200035c565b5090565b90565b61114f806200038d6000396000f3006080604052600436106100a4576000357c0100000000000000000000000000000000000000000000000000000000900463ffffffff1680632ca15122146100a957806346c715fa146100d457806361f3992e1461016457806389c19ddb146101f457806398a679b41461031c578063a077484b14610373578063c19d93fb14610468578063c2fcd91914610493578063ed5d6fbc14610523578063f2abd42f14610552575b600080fd5b3480156100b557600080fd5b506100be6105a9565b6040518082815260200191505060405180910390f35b3480156100e057600080fd5b506100e9610ac2565b6040518080602001828103825283818151815260200191508051906020019080838360005b8381101561012957808201518184015260208101905061010e565b50505050905090810190601f1680156101565780820380516001836020036101000a031916815260200191505b509250505060405180910390f35b34801561017057600080fd5b50610179610b60565b6040518080602001828103825283818151815260200191508051906020019080838360005b838110156101b957808201518184015260208101905061019e565b50505050905090810190601f1680156101e65780820380516001836020036101000a031916815260200191505b509250505060405180910390f35b34801561020057600080fd5b506102a1600480360381019080803590602001908201803590602001908080601f0160208091040260200160405190810160405280939291908181526020018383808284378201915050505050509192919290803590602001908201803590602001908080601f0160208091040260200160405190810160405280939291908181526020018383808284378201915050505050509192919290505050610bfe565b6040518080602001828103825283818151815260200191508051906020019080838360005b838110156102e15780820151818401526020810190506102c6565b50505050905090810190601f16801561030e5780820380516001836020036101000a031916815260200191505b509250505060405180910390f35b34801561032857600080fd5b50610331610dcf565b604051808273ffffffffffffffffffffffffffffffffffffffff1673ffffffffffffffffffffffffffffffffffffffff16815260200191505060405180910390f35b34801561037f57600080fd5b50610466600480360381019080803590602001908201803590602001908080601f0160208091040260200160405190810160405280939291908181526020018383808284378201915050505050509192919290803590602001908201803590602001908080601f0160208091040260200160405190810160405280939291908181526020018383808284378201915050505050509192919290803590602001908201803590602001908080601f0160208091040260200160405190810160405280939291908181526020018383808284378201915050505050509192919290505050610df4565b005b34801561047457600080fd5b5061047d610fa7565b6040518082815260200191505060405180910390f35b34801561049f57600080fd5b506104a8610fad565b6040518080602001828103825283818151815260200191508051906020019080838360005b838110156104e85780820151818401526020810190506104cd565b50505050905090810190601f1680156105155780820380516001836020036101000a031916815260200191505b509250505060405180910390f35b34801561052f57600080fd5b5061053861104b565b604051808215151515815260200191505060405180910390f35b34801561055e57600080fd5b50610567611058565b604051808273ffffffffffffffffffffffffffffffffffffffff1673ffffffffffffffffffffffffffffffffffffffff16815260200191505060405180910390f35b600060606000606060008060055414806105c557506001600554145b15156105d057600080fd5b6000600554141561084a5760038054600181600116156101000203166002900480601f0160208091040260200160405190810160405280929190818152602001828054600181600116156101000203166002900480156106715780601f1061064657610100808354040283529160200191610671565b820191906000526020600020905b81548152906001019060200180831161065457829003601f168201915b505050505093506000845114151561068857600080fd5b600660008060009054906101000a900473ffffffffffffffffffffffffffffffffffffffff1673ffffffffffffffffffffffffffffffffffffffff1673ffffffffffffffffffffffffffffffffffffffff1681526020019081526020016000209250610827838054600181600116156101000203166002900480601f0160208091040260200160405190810160405280929190818152602001828054600181600116156101000203166002900480156107825780601f1061075757610100808354040283529160200191610782565b820191906000526020600020905b81548152906001019060200180831161076557829003601f168201915b505050505060028054600181600116156101000203166002900480601f01602080910402602001604051908101604052809291908181526020018280546001816001161561010002031660029004801561081d5780601f106107f25761010080835404028352916020019161081d565b820191906000526020600020905b81548152906001019060200180831161080057829003601f168201915b5050505050610bfe565b6003908051906020019061083c92919061107e565b506001600581905550610ab6565b60048054600181600116156101000203166002900480601f0160208091040260200160405190810160405280929190818152602001828054600181600116156101000203166002900480156108e05780601f106108b5576101008083540402835291602001916108e0565b820191906000526020600020905b8154815290600101906020018083116108c357829003601f168201915b50505050509150600082511415156108f757600080fd5b60066000600160009054906101000a900473ffffffffffffffffffffffffffffffffffffffff1673ffffffffffffffffffffffffffffffffffffffff1673ffffffffffffffffffffffffffffffffffffffff1681526020019081526020016000209050610a97818054600181600116156101000203166002900480601f0160208091040260200160405190810160405280929190818152602001828054600181600116156101000203166002900480156109f25780601f106109c7576101008083540402835291602001916109f2565b820191906000526020600020905b8154815290600101906020018083116109d557829003601f168201915b505050505060028054600181600116156101000203166002900480601f016020809104026020016040519081016040528092919081815260200182805460018160011615610100020316600290048015610a8d5780601f10610a6257610100808354040283529160200191610a8d565b820191906000526020600020905b815481529060010190602001808311610a7057829003601f168201915b5050505050610bfe565b60049080519060200190610aac92919061107e565b5060026005819055505b60055494505050505090565b60028054600181600116156101000203166002900480601f016020809104026020016040519081016040528092919081815260200182805460018160011615610100020316600290048015610b585780601f10610b2d57610100808354040283529160200191610b58565b820191906000526020600020905b815481529060010190602001808311610b3b57829003601f168201915b505050505081565b60038054600181600116156101000203166002900480601f016020809104026020016040519081016040528092919081815260200182805460018160011615610100020316600290048015610bf65780601f10610bcb57610100808354040283529160200191610bf6565b820191906000526020600020905b815481529060010190602001808311610bd957829003601f168201915b505050505081565b606080606080606060008088955087945084518651016040519080825280601f01601f191660200182016040528015610c465781602001602082028038833980820191505090505b50935083925060009150600090505b8551811015610d08578581815181101515610c6c57fe5b9060200101517f010000000000000000000000000000000000000000000000000000000000000090047f0100000000000000000000000000000000000000000000000000000000000000028383806001019450815181101515610ccb57fe5b9060200101907effffffffffffffffffffffffffffffffffffffffffffffffffffffffffffff1916908160001a9053508080600101915050610c55565b600090505b8451811015610dc0578481815181101515610d2457fe5b9060200101517f010000000000000000000000000000000000000000000000000000000000000090047f0100000000000000000000000000000000000000000000000000000000000000028383806001019450815181101515610d8357fe5b9060200101907effffffffffffffffffffffffffffffffffffffffffffffffffffffffffffff1916908160001a9053508080600101915050610d0d565b82965050505050505092915050565b6000809054906101000a900473ffffffffffffffffffffffffffffffffffffffff1681565b6007836040518082805190602001908083835b602083101515610e2c5780518252602082019150602081019050602083039250610e07565b6001836020036101000a038019825116818451168082178552505050505050905001915050908152602001604051809103902060009054906101000a900473ffffffffffffffffffffffffffffffffffffffff166000806101000a81548173ffffffffffffffffffffffffffffffffffffffff021916908373ffffffffffffffffffffffffffffffffffffffff1602179055506007826040518082805190602001908083835b602083101515610ef75780518252602082019150602081019050602083039250610ed2565b6001836020036101000a038019825116818451168082178552505050505050905001915050908152602001604051809103902060009054906101000a900473ffffffffffffffffffffffffffffffffffffffff16600160006101000a81548173ffffffffffffffffffffffffffffffffffffffff021916908373ffffffffffffffffffffffffffffffffffffffff1602179055508060029080519060200190610fa192919061107e565b50505050565b60055481565b60048054600181600116156101000203166002900480601f0160208091040260200160405190810160405280929190818152602001828054600181600116156101000203166002900480156110435780601f1061101857610100808354040283529160200191611043565b820191906000526020600020905b81548152906001019060200180831161102657829003601f168201915b505050505081565b6000600260055414905090565b600160009054906101000a900473ffffffffffffffffffffffffffffffffffffffff1681565b828054600181600116156101000203166002900490600052602060002090601f016020900481019282601f106110bf57805160ff19168380011785556110ed565b828001600101855582156110ed579182015b828111156110ec5782518255916020019190600101906110d1565b5b5090506110fa91906110fe565b5090565b61112091905b8082111561111c576000816000905550600101611104565b5090565b905600a165627a7a72305820fbf7778202f368553aa964290beb6dba8183e8d98c5190e699673cb172a4684e0029",
  "source": "pragma solidity ^0.4.17;\ncontract Signing {\n  address public signer_1;\n  address public signer_2;\n  string public original;\n  string public signed_1;\n  string public signed_2;\n  uint public state;\n\n  mapping (address => string) pub_keys;\n  mapping (string => address) addrs;\n\n  constructor() public {\n\n    state = 0;\n\n    addrs['Tom'] = 0x52f0c2E6260aB3eE564CE4354985A9b8500E62Fe;\n    addrs['Jerry'] = 0x632E605A551E3EbaA095C1e16681e6e3BD54fAf8;\n\n    pub_keys[0x52f0c2E6260aB3eE564CE4354985A9b8500E62Fe] = '52f0c2E6260aB3eE564CE4354985A9b8500E62Fe';\n    pub_keys[0x632E605A551E3EbaA095C1e16681e6e3BD54fAf8] = '632E605A551E3EbaA095C1e16681e6e3BD54fAf8';\n \n  }\n\n  function real_constructor(string name_1, string name_2, string doc) public {\n    signer_1 = addrs[name_1];\n    // require(msg.sender == signer_1);\n    signer_2 = addrs[name_2];\n    original = doc;\n\n   }\n\n\n  function sign() public returns(uint){\n\n      require (state == 0 || state == 1);\n\n      if (state == 0) {\n        // signer_1 = 0x52f0c2E6260aB3eE564CE4354985A9b8500E62Fe;\n        // require(msg.sender == signer_1);\n        bytes memory tmp_1 = bytes(signed_1);\n        require(tmp_1.length == 0);\n        string key_1 = pub_keys[signer_1];\n        signed_1 = concat(key_1, original);\n        state = 1;\n      }\n      else {\n        // require(msg.sender == signer_2);\n        bytes memory tmp_2 = bytes(signed_2);\n        require(tmp_2.length == 0);\n        string key_2 = pub_keys[signer_2];\n        signed_2 = concat(key_2, original);\n        state = 2;\n      }\n      return state;\n  }\n\n  function completion() public view returns (bool) {\n    return state == 2;\n  }\n\n  function concat(string _a, string _b) constant returns (string){\n    bytes memory bytes_a = bytes(_a);\n    bytes memory bytes_b = bytes(_b);\n    string memory length_ab = new string(bytes_a.length + bytes_b.length);\n    bytes memory bytes_c = bytes(length_ab);\n    uint k = 0;\n    for (uint i = 0; i < bytes_a.length; i++) bytes_c[k++] = bytes_a[i];\n    for (i = 0; i < bytes_b.length; i++) bytes_c[k++] = bytes_b[i];\n    return string(bytes_c);\n  }\n}",
  "sourcePath": "/Users/Zhou/Downloads/DocuChain/contracts/Signing.sol",
  "compiler": {
    "name": "solc",
    "version": "0.4.24+commit.e67f0147.Emscripten.clang"
  },
  "schemaVersion": "2.0.0",
  "updatedAt": "2018-06-17T20:25:02.596Z"
}